{
    "_format": "hh-sol-artifact-1",
    "contractName": "Address",
    "sourceName": "src/contracts/tvm/Address.sol",
    "abi": [
        {
            "inputs": [],
            "stateMutability": "nonpayable",
            "type": "constructor"
        },
        {
            "anonymous": false,
            "inputs": [
                {
                    "indexed": false,
                    "internalType": "address",
                    "name": "from",
                    "type": "address"
                },
                {
                    "indexed": false,
                    "internalType": "uint256",
                    "name": "value",
                    "type": "uint256"
                },
                {
                    "indexed": false,
                    "internalType": "bytes",
                    "name": "data",
                    "type": "bytes"
                }
            ],
            "name": "Flush",
            "type": "event"
        },
        {
            "anonymous": false,
            "inputs": [
                {
                    "indexed": false,
                    "internalType": "address",
                    "name": "",
                    "type": "address"
                },
                {
                    "indexed": false,
                    "internalType": "uint256",
                    "name": "",
                    "type": "uint256"
                }
            ],
            "name": "Transfer",
            "type": "event"
        },
        {
            "anonymous": false,
            "inputs": [
                {
                    "indexed": false,
                    "internalType": "uint256",
                    "name": "prevTransferGasLimit",
                    "type": "uint256"
                },
                {
                    "indexed": false,
                    "internalType": "uint256",
                    "name": "newTransferGasLimit",
                    "type": "uint256"
                }
            ],
            "name": "TransferGasLimitChange",
            "type": "event"
        },
        {
            "inputs": [],
            "name": "autoFlush",
            "outputs": [
                {
                    "internalType": "bool",
                    "name": "",
                    "type": "bool"
                }
            ],
            "stateMutability": "view",
            "type": "function"
        },
        {
            "inputs": [
                {
                    "internalType": "uint256",
                    "name": "newTransferGasLimit",
                    "type": "uint256"
                }
            ],
            "name": "changeTransferGasLimit",
            "outputs": [],
            "stateMutability": "nonpayable",
            "type": "function"
        },
        {
            "inputs": [],
            "name": "disableAutoFlush",
            "outputs": [
                {
                    "internalType": "bool",
                    "name": "",
                    "type": "bool"
                }
            ],
            "stateMutability": "nonpayable",
            "type": "function"
        },
        {
            "inputs": [],
            "name": "enableAutoFlush",
            "outputs": [
                {
                    "internalType": "bool",
                    "name": "",
                    "type": "bool"
                }
            ],
            "stateMutability": "nonpayable",
            "type": "function"
        },
        {
            "inputs": [],
            "name": "flush",
            "outputs": [],
            "stateMutability": "nonpayable",
            "type": "function"
        },
        {
            "inputs": [
                {
                    "internalType": "address[]",
                    "name": "tokenContractAddresses",
                    "type": "address[]"
                }
            ],
            "name": "flushMultipleTokens",
            "outputs": [
                {
                    "internalType": "bool",
                    "name": "",
                    "type": "bool"
                }
            ],
            "stateMutability": "nonpayable",
            "type": "function"
        },
        {
            "inputs": [
                {
                    "internalType": "address",
                    "name": "tokenContractAddress",
                    "type": "address"
                }
            ],
            "name": "flushTokens",
            "outputs": [],
            "stateMutability": "nonpayable",
            "type": "function"
        },
        {
            "inputs": [
                {
                    "internalType": "address",
                    "name": "tokenContractAddress",
                    "type": "address"
                }
            ],
            "name": "getBalance",
            "outputs": [
                {
                    "internalType": "uint256",
                    "name": "",
                    "type": "uint256"
                }
            ],
            "stateMutability": "view",
            "type": "function"
        },
        {
            "inputs": [
                {
                    "internalType": "address",
                    "name": "owner_",
                    "type": "address"
                },
                {
                    "internalType": "string",
                    "name": "name_",
                    "type": "string"
                },
                {
                    "internalType": "bool",
                    "name": "enableAutoFlush_",
                    "type": "bool"
                }
            ],
            "name": "init",
            "outputs": [],
            "stateMutability": "nonpayable",
            "type": "function"
        },
        {
            "inputs": [],
            "name": "name",
            "outputs": [
                {
                    "internalType": "string",
                    "name": "",
                    "type": "string"
                }
            ],
            "stateMutability": "view",
            "type": "function"
        },
        {
            "inputs": [],
            "name": "owner",
            "outputs": [
                {
                    "internalType": "address payable",
                    "name": "",
                    "type": "address"
                }
            ],
            "stateMutability": "view",
            "type": "function"
        },
        {
            "inputs": [
                {
                    "internalType": "address",
                    "name": "_to",
                    "type": "address"
                },
                {
                    "internalType": "uint256",
                    "name": "_value",
                    "type": "uint256"
                },
                {
                    "internalType": "address",
                    "name": "_tokenContractAddress",
                    "type": "address"
                }
            ],
            "name": "transfer",
            "outputs": [
                {
                    "internalType": "bool",
                    "name": "",
                    "type": "bool"
                }
            ],
            "stateMutability": "payable",
            "type": "function"
        },
        {
            "inputs": [],
            "name": "transferGasLimit",
            "outputs": [
                {
                    "internalType": "uint256",
                    "name": "",
                    "type": "uint256"
                }
            ],
            "stateMutability": "view",
            "type": "function"
        },
        {
            "inputs": [
                {
                    "internalType": "address",
                    "name": "newOwner_",
                    "type": "address"
                }
            ],
            "name": "transferOwnership",
            "outputs": [
                {
                    "internalType": "bool",
                    "name": "",
                    "type": "bool"
                }
            ],
            "stateMutability": "nonpayable",
            "type": "function"
        },
        {
            "inputs": [
                {
                    "internalType": "address[]",
                    "name": "recipients_",
                    "type": "address[]"
                },
                {
                    "internalType": "uint256[]",
                    "name": "amounts_",
                    "type": "uint256[]"
                },
                {
                    "internalType": "address",
                    "name": "tokenAddress_",
                    "type": "address"
                }
            ],
            "name": "transferToMany",
            "outputs": [
                {
                    "internalType": "bool",
                    "name": "",
                    "type": "bool"
                }
            ],
            "stateMutability": "payable",
            "type": "function"
        },
        {
            "stateMutability": "payable",
            "type": "receive"
        }
    ],
    "bytecode": "0x60806040526000600260006101000a81548160ff0219169083151502179055503480156200002c57600080fd5b50614e206003819055507f414dec50d30853f0eea607f090bdfee072c2e0583dc66f04a723f7a0b8314eac60006003546040516200006c9291906200009c565b60405180910390a1620000e7565b6200008581620000d3565b82525050565b6200009681620000c9565b82525050565b6000604082019050620000b360008301856200007a565b620000c260208301846200008b565b9392505050565b6000819050919050565b6000620000e082620000c9565b9050919050565b61292980620000f76000396000f3fe6080604052600436106100ec5760003560e01c80636b9f96ea1161008a578063dbba0f0111610059578063dbba0f01146102f3578063e8f67c3b14610323578063f2fde38b1461034e578063f8b2cb4f1461038b57610118565b80636b9f96ea146102565780637677d5821461026d5780638da5cb5b1461029d578063c5ae653a146102c857610118565b80632cd9f12d116100c65780632cd9f12d1461019c5780633ef13367146101c557806347aca69e146101ee578063525852071461022b57610118565b806306fdde031461011d578063158c2cf714610148578063240fc6841461017357610118565b366101185760011515600260009054906101000a900460ff1615151415610116576101156103c8565b5b005b600080fd5b34801561012957600080fd5b506101326104ec565b60405161013f91906123ad565b60405180910390f35b34801561015457600080fd5b5061015d61057a565b60405161016a9190612392565b60405180910390f35b34801561017f57600080fd5b5061019a60048036038101906101959190611bc7565b61058d565b005b3480156101a857600080fd5b506101c360048036038101906101be9190611d70565b6107d2565b005b3480156101d157600080fd5b506101ec60048036038101906101e79190611b9e565b6108ea565b005b3480156101fa57600080fd5b5061021560048036038101906102109190611d06565b610a52565b6040516102229190612392565b60405180910390f35b34801561023757600080fd5b50610240610c03565b60405161024d9190612392565b60405180910390f35b34801561026257600080fd5b5061026b6103c8565b005b61028760048036038101906102829190611c7d565b610cb6565b6040516102949190612392565b60405180910390f35b3480156102a957600080fd5b506102b26110a6565b6040516102bf919061230e565b60405180910390f35b3480156102d457600080fd5b506102dd6110ca565b6040516102ea9190612392565b60405180910390f35b61030d60048036038101906103089190611c2e565b61117d565b60405161031a9190612392565b60405180910390f35b34801561032f57600080fd5b50610338611263565b604051610345919061258f565b60405180910390f35b34801561035a57600080fd5b5061037560048036038101906103709190611b9e565b611269565b6040516103829190612392565b60405180910390f35b34801561039757600080fd5b506103b260048036038101906103ad9190611b9e565b611463565b6040516103bf919061258f565b60405180910390f35b600047905060008114156103dc57506104ea565b60008060009054906101000a900473ffffffffffffffffffffffffffffffffffffffff1673ffffffffffffffffffffffffffffffffffffffff1682604051610423906122de565b60006040518083038185875af1925050503d8060008114610460576040519150601f19603f3d011682016040523d82523d6000602084013e610465565b606091505b50509050806104a9576040517f08c379a00000000000000000000000000000000000000000000000000000000081526004016104a09061256f565b60405180910390fd5b7f67495b83328eec178efdde077ac9a34136f3e1022fb5d419063f3d0e171196fa33836000366040516104df9493929190612352565b60405180910390a150505b565b600180546104f990612795565b80601f016020809104026020016040519081016040528092919081815260200182805461052590612795565b80156105725780601f1061054757610100808354040283529160200191610572565b820191906000526020600020905b81548152906001019060200180831161055557829003601f168201915b505050505081565b600260009054906101000a900460ff1681565b600073ffffffffffffffffffffffffffffffffffffffff1660008054906101000a900473ffffffffffffffffffffffffffffffffffffffff1673ffffffffffffffffffffffffffffffffffffffff161461061c576040517f08c379a00000000000000000000000000000000000000000000000000000000081526004016106139061252f565b60405180910390fd5b826000806101000a81548173ffffffffffffffffffffffffffffffffffffffff021916908373ffffffffffffffffffffffffffffffffffffffff1602179055508160019080519060200190610672929190611900565b5080600260006101000a81548160ff021916908315150217905550600047905060008114806106b4575060001515600260009054906101000a900460ff161515145b156106bf57506107cd565b60008060009054906101000a900473ffffffffffffffffffffffffffffffffffffffff1673ffffffffffffffffffffffffffffffffffffffff1682604051610706906122de565b60006040518083038185875af1925050503d8060008114610743576040519150601f19603f3d011682016040523d82523d6000602084013e610748565b606091505b505090508061078c576040517f08c379a00000000000000000000000000000000000000000000000000000000081526004016107839061256f565b60405180910390fd5b7f67495b83328eec178efdde077ac9a34136f3e1022fb5d419063f3d0e171196fa30836000366040516107c29493929190612352565b60405180910390a150505b505050565b60008054906101000a900473ffffffffffffffffffffffffffffffffffffffff1673ffffffffffffffffffffffffffffffffffffffff163373ffffffffffffffffffffffffffffffffffffffff1614610860576040517f08c379a0000000000000000000000000000000000000000000000000000000008152600401610857906123ef565b60405180910390fd5b6108fc8110156108a5576040517f08c379a000000000000000000000000000000000000000000000000000000000815260040161089c9061250f565b60405180910390fd5b7f414dec50d30853f0eea607f090bdfee072c2e0583dc66f04a723f7a0b8314eac600354826040516108d89291906125aa565b60405180910390a18060038190555050565b60008054906101000a900473ffffffffffffffffffffffffffffffffffffffff1673ffffffffffffffffffffffffffffffffffffffff163373ffffffffffffffffffffffffffffffffffffffff1614610978576040517f08c379a000000000000000000000000000000000000000000000000000000000815260040161096f906123ef565b60405180910390fd5b6000819050600030905060008273ffffffffffffffffffffffffffffffffffffffff166370a08231836040518263ffffffff1660e01b81526004016109bd91906122f3565b60206040518083038186803b1580156109d557600080fd5b505afa1580156109e9573d6000803e3d6000fd5b505050506040513d601f19601f82011682018060405250810190610a0d9190611d99565b90506000811415610a2057505050610a4f565b610a4b8460008054906101000a900473ffffffffffffffffffffffffffffffffffffffff1683611504565b5050505b50565b60008060009054906101000a900473ffffffffffffffffffffffffffffffffffffffff1673ffffffffffffffffffffffffffffffffffffffff163373ffffffffffffffffffffffffffffffffffffffff1614610ae3576040517f08c379a0000000000000000000000000000000000000000000000000000000008152600401610ada906123ef565b60405180910390fd5b6000805b8351811015610bb9573073ffffffffffffffffffffffffffffffffffffffff16633ef13367858381518110610b45577f4e487b7100000000000000000000000000000000000000000000000000000000600052603260045260246000fd5b60200260200101516040518263ffffffff1660e01b8152600401610b6991906122f3565b600060405180830381600087803b158015610b8357600080fd5b505af1925050508015610b94575060015b610ba15760009150610ba6565b600191505b8080610bb1906127c7565b915050610ae7565b5080610bfa576040517f08c379a0000000000000000000000000000000000000000000000000000000008152600401610bf19061242f565b60405180910390fd5b80915050919050565b60008060009054906101000a900473ffffffffffffffffffffffffffffffffffffffff1673ffffffffffffffffffffffffffffffffffffffff163373ffffffffffffffffffffffffffffffffffffffff1614610c94576040517f08c379a0000000000000000000000000000000000000000000000000000000008152600401610c8b906123ef565b60405180910390fd5b6001600260006101000a81548160ff0219169083151502179055506001905090565b60008060009054906101000a900473ffffffffffffffffffffffffffffffffffffffff1673ffffffffffffffffffffffffffffffffffffffff163373ffffffffffffffffffffffffffffffffffffffff1614610d47576040517f08c379a0000000000000000000000000000000000000000000000000000000008152600401610d3e906123ef565b60405180910390fd5b6000868690501415610d8e576040517f08c379a0000000000000000000000000000000000000000000000000000000008152600401610d85906124af565b60405180910390fd5b838390508686905014610dd6576040517f08c379a0000000000000000000000000000000000000000000000000000000008152600401610dcd9061240f565b60405180910390fd5b6101008686905010610e1d576040517f08c379a0000000000000000000000000000000000000000000000000000000008152600401610e149061244f565b60405180910390fd5b6000805b85859050811015610e8c57858582818110610e65577f4e487b7100000000000000000000000000000000000000000000000000000000600052603260045260246000fd5b9050602002013582610e7791906126a3565b91508080610e84906127c7565b915050610e21565b508034101580610ea4575080610ea18461163a565b10155b610ee3576040517f08c379a0000000000000000000000000000000000000000000000000000000008152600401610eda906124ef565b60405180910390fd5b60005b8787905081101561109757600073ffffffffffffffffffffffffffffffffffffffff16888883818110610f42577f4e487b7100000000000000000000000000000000000000000000000000000000600052603260045260246000fd5b9050602002016020810190610f579190611b9e565b73ffffffffffffffffffffffffffffffffffffffff161415610fae576040517f08c379a0000000000000000000000000000000000000000000000000000000008152600401610fa5906124cf565b60405180910390fd5b611045888883818110610fea577f4e487b7100000000000000000000000000000000000000000000000000000000600052603260045260246000fd5b9050602002016020810190610fff9190611b9e565b878784818110611038577f4e487b7100000000000000000000000000000000000000000000000000000000600052603260045260246000fd5b905060200201358661171b565b611084576040517f08c379a000000000000000000000000000000000000000000000000000000000815260040161107b9061248f565b60405180910390fd5b808061108f906127c7565b915050610ee6565b50600191505095945050505050565b60008054906101000a900473ffffffffffffffffffffffffffffffffffffffff1681565b60008060009054906101000a900473ffffffffffffffffffffffffffffffffffffffff1673ffffffffffffffffffffffffffffffffffffffff163373ffffffffffffffffffffffffffffffffffffffff161461115b576040517f08c379a0000000000000000000000000000000000000000000000000000000008152600401611152906123ef565b60405180910390fd5b6000600260006101000a81548160ff0219169083151502179055506001905090565b60008060009054906101000a900473ffffffffffffffffffffffffffffffffffffffff1673ffffffffffffffffffffffffffffffffffffffff163373ffffffffffffffffffffffffffffffffffffffff161461120e576040517f08c379a0000000000000000000000000000000000000000000000000000000008152600401611205906123ef565b60405180910390fd5b61121984848461171b565b611258576040517f08c379a000000000000000000000000000000000000000000000000000000000815260040161124f9061248f565b60405180910390fd5b600190509392505050565b60035481565b60008060009054906101000a900473ffffffffffffffffffffffffffffffffffffffff1673ffffffffffffffffffffffffffffffffffffffff163373ffffffffffffffffffffffffffffffffffffffff16146112fa576040517f08c379a00000000000000000000000000000000000000000000000000000000081526004016112f1906123ef565b60405180910390fd5b600073ffffffffffffffffffffffffffffffffffffffff1660008054906101000a900473ffffffffffffffffffffffffffffffffffffffff1673ffffffffffffffffffffffffffffffffffffffff16141561138a576040517f08c379a00000000000000000000000000000000000000000000000000000000081526004016113819061246f565b60405180910390fd5b816000806101000a81548173ffffffffffffffffffffffffffffffffffffffff021916908373ffffffffffffffffffffffffffffffffffffffff160217905550600073ffffffffffffffffffffffffffffffffffffffff1660008054906101000a900473ffffffffffffffffffffffffffffffffffffffff1673ffffffffffffffffffffffffffffffffffffffff16141561145a576040517f08c379a00000000000000000000000000000000000000000000000000000000081526004016114519061246f565b60405180910390fd5b60019050919050565b60008060009054906101000a900473ffffffffffffffffffffffffffffffffffffffff1673ffffffffffffffffffffffffffffffffffffffff163373ffffffffffffffffffffffffffffffffffffffff16146114f4576040517f08c379a00000000000000000000000000000000000000000000000000000000081526004016114eb906123ef565b60405180910390fd5b6114fd8261163a565b9050919050565b6000808473ffffffffffffffffffffffffffffffffffffffff1663a9059cbb8585604051602401611536929190612329565b6040516020818303038152906040529060e01b6020820180517bffffffffffffffffffffffffffffffffffffffffffffffffffffffff838183161783525050505060405161158491906122c7565b6000604051808303816000865af19150503d80600081146115c1576040519150601f19603f3d011682016040523d82523d6000602084013e6115c6565b606091505b50915091508180156115f457506000815114806115f35750808060200190518101906115f29190611d47565b5b5b611633576040517f08c379a000000000000000000000000000000000000000000000000000000000815260040161162a9061254f565b60405180910390fd5b5050505050565b60003073ffffffffffffffffffffffffffffffffffffffff168273ffffffffffffffffffffffffffffffffffffffff16141561167857479050611716565b6000829050600030905060008273ffffffffffffffffffffffffffffffffffffffff166370a08231836040518263ffffffff1660e01b81526004016116bd91906122f3565b60206040518083038186803b1580156116d557600080fd5b505afa1580156116e9573d6000803e3d6000fd5b505050506040513d601f19601f8201168201806040525081019061170d9190611d99565b90508093505050505b919050565b6000803073ffffffffffffffffffffffffffffffffffffffff168373ffffffffffffffffffffffffffffffffffffffff161461180b57600083905060008173ffffffffffffffffffffffffffffffffffffffff166370a08231306040518263ffffffff1660e01b815260040161179191906122f3565b60206040518083038186803b1580156117a957600080fd5b505afa1580156117bd573d6000803e3d6000fd5b505050506040513d601f19601f820116820180604052508101906117e19190611d99565b9050858110156117f45760009250611804565b6117ff858888611504565b600192505b505061187c565b60008573ffffffffffffffffffffffffffffffffffffffff1685604051611831906122de565b60006040518083038185875af1925050503d806000811461186e576040519150601f19603f3d011682016040523d82523d6000602084013e611873565b606091505b50509050809150505b806118bc576040517f08c379a00000000000000000000000000000000000000000000000000000000081526004016118b3906123cf565b60405180910390fd5b7f69ca02dd4edd7bf0a4abb9ed3b7af3f14778db5d61921c7dc7cd545266326de285856040516118ed929190612329565b60405180910390a1809150509392505050565b82805461190c90612795565b90600052602060002090601f01602090048101928261192e5760008555611975565b82601f1061194757805160ff1916838001178555611975565b82800160010185558215611975579182015b82811115611974578251825591602001919060010190611959565b5b5090506119829190611986565b5090565b5b8082111561199f576000816000905550600101611987565b5090565b60006119b66119b184612604565b6125d3565b905080838252602082019050828560208602820111156119d557600080fd5b60005b85811015611a0557816119eb8882611a4d565b8452602084019350602083019250506001810190506119d8565b5050509392505050565b6000611a22611a1d84612630565b6125d3565b905082815260208101848484011115611a3a57600080fd5b611a45848285612753565b509392505050565b600081359050611a5c816128ae565b92915050565b60008083601f840112611a7457600080fd5b8235905067ffffffffffffffff811115611a8d57600080fd5b602083019150836020820283011115611aa557600080fd5b9250929050565b600082601f830112611abd57600080fd5b8135611acd8482602086016119a3565b91505092915050565b60008083601f840112611ae857600080fd5b8235905067ffffffffffffffff811115611b0157600080fd5b602083019150836020820283011115611b1957600080fd5b9250929050565b600081359050611b2f816128c5565b92915050565b600081519050611b44816128c5565b92915050565b600082601f830112611b5b57600080fd5b8135611b6b848260208601611a0f565b91505092915050565b600081359050611b83816128dc565b92915050565b600081519050611b98816128dc565b92915050565b600060208284031215611bb057600080fd5b6000611bbe84828501611a4d565b91505092915050565b600080600060608486031215611bdc57600080fd5b6000611bea86828701611a4d565b935050602084013567ffffffffffffffff811115611c0757600080fd5b611c1386828701611b4a565b9250506040611c2486828701611b20565b9150509250925092565b600080600060608486031215611c4357600080fd5b6000611c5186828701611a4d565b9350506020611c6286828701611b74565b9250506040611c7386828701611a4d565b9150509250925092565b600080600080600060608688031215611c9557600080fd5b600086013567ffffffffffffffff811115611caf57600080fd5b611cbb88828901611a62565b9550955050602086013567ffffffffffffffff811115611cda57600080fd5b611ce688828901611ad6565b93509350506040611cf988828901611a4d565b9150509295509295909350565b600060208284031215611d1857600080fd5b600082013567ffffffffffffffff811115611d3257600080fd5b611d3e84828501611aac565b91505092915050565b600060208284031215611d5957600080fd5b6000611d6784828501611b35565b91505092915050565b600060208284031215611d8257600080fd5b6000611d9084828501611b74565b91505092915050565b600060208284031215611dab57600080fd5b6000611db984828501611b89565b91505092915050565b611dcb8161270b565b82525050565b611dda816126f9565b82525050565b611de98161271d565b82525050565b6000611dfb8385612676565b9350611e08838584612753565b611e118361289d565b840190509392505050565b6000611e2782612660565b611e318185612687565b9350611e41818560208601612762565b80840191505092915050565b6000611e588261266b565b611e628185612692565b9350611e72818560208601612762565b611e7b8161289d565b840191505092915050565b6000611e93601983612692565b91507f4661696c656420746f207472616e7366657220616d6f756e74000000000000006000830152602082019050919050565b6000611ed3601683612692565b91507f556e617574686f72697a6564206f7065726174696f6e000000000000000000006000830152602082019050919050565b6000611f13603e83612692565b91507f496e76616c696420696e7075743a206c656e677468206f66207265636970696560008301527f6e7473206e6f7420657175616c206c656e677468206f6620616d6f756e7400006020830152604082019050919050565b6000611f79602183612692565b91507f536f6d657468696e672077656e742077726f6e6720647572696e6720666c757360008301527f68000000000000000000000000000000000000000000000000000000000000006020830152604082019050919050565b6000611fdf601383612692565b91507f546f6f206d616e7920726563697069656e7473000000000000000000000000006000830152602082019050919050565b600061201f601183612692565b91507f4f776e65722069732072657175697265640000000000000000000000000000006000830152602082019050919050565b600061205f601283612692565b91507f4661696c656420746f207472616e7366657200000000000000000000000000006000830152602082019050919050565b600061209f602083612692565b91507f4d7573742073656e6420746f206174206c65617374206f6e6520706572736f6e6000830152602082019050919050565b60006120df601983612692565b91507f496e76616c696420726563697069656e742061646472657373000000000000006000830152602082019050919050565b600061211f602d83612692565b91507f4e6f7420656e6f7567682076616c75652073656e7420746f20636f6d706c657460008301527f65207472616e73616374696f6e000000000000000000000000000000000000006020830152604082019050919050565b6000612185600083612687565b9150600082019050919050565b600061219f601a83612692565b91507f5472616e7366657220676173206c696d697420746f6f206c6f770000000000006000830152602082019050919050565b60006121df601383612692565b91507f416c726561647920696e697469616c697a6564000000000000000000000000006000830152602082019050919050565b600061221f602d83612692565b91507f5472616e7366657248656c7065723a3a736166655472616e736665723a20747260008301527f616e73666572206661696c6564000000000000000000000000000000000000006020830152604082019050919050565b6000612285600c83612692565b91507f466c757368206661696c656400000000000000000000000000000000000000006000830152602082019050919050565b6122c181612749565b82525050565b60006122d38284611e1c565b915081905092915050565b60006122e982612178565b9150819050919050565b60006020820190506123086000830184611dd1565b92915050565b60006020820190506123236000830184611dc2565b92915050565b600060408201905061233e6000830185611dd1565b61234b60208301846122b8565b9392505050565b60006060820190506123676000830187611dd1565b61237460208301866122b8565b8181036040830152612387818486611def565b905095945050505050565b60006020820190506123a76000830184611de0565b92915050565b600060208201905081810360008301526123c78184611e4d565b905092915050565b600060208201905081810360008301526123e881611e86565b9050919050565b6000602082019050818103600083015261240881611ec6565b9050919050565b6000602082019050818103600083015261242881611f06565b9050919050565b6000602082019050818103600083015261244881611f6c565b9050919050565b6000602082019050818103600083015261246881611fd2565b9050919050565b6000602082019050818103600083015261248881612012565b9050919050565b600060208201905081810360008301526124a881612052565b9050919050565b600060208201905081810360008301526124c881612092565b9050919050565b600060208201905081810360008301526124e8816120d2565b9050919050565b6000602082019050818103600083015261250881612112565b9050919050565b6000602082019050818103600083015261252881612192565b9050919050565b60006020820190508181036000830152612548816121d2565b9050919050565b6000602082019050818103600083015261256881612212565b9050919050565b6000602082019050818103600083015261258881612278565b9050919050565b60006020820190506125a460008301846122b8565b92915050565b60006040820190506125bf60008301856122b8565b6125cc60208301846122b8565b9392505050565b6000604051905081810181811067ffffffffffffffff821117156125fa576125f961286e565b5b8060405250919050565b600067ffffffffffffffff82111561261f5761261e61286e565b5b602082029050602081019050919050565b600067ffffffffffffffff82111561264b5761264a61286e565b5b601f19601f8301169050602081019050919050565b600081519050919050565b600081519050919050565b600082825260208201905092915050565b600081905092915050565b600082825260208201905092915050565b60006126ae82612749565b91506126b983612749565b9250827fffffffffffffffffffffffffffffffffffffffffffffffffffffffffffffffff038211156126ee576126ed612810565b5b828201905092915050565b600061270482612729565b9050919050565b600061271682612729565b9050919050565b60008115159050919050565b600073ffffffffffffffffffffffffffffffffffffffff82169050919050565b6000819050919050565b82818337600083830152505050565b60005b83811015612780578082015181840152602081019050612765565b8381111561278f576000848401525b50505050565b600060028204905060018216806127ad57607f821691505b602082108114156127c1576127c061283f565b5b50919050565b60006127d282612749565b91507fffffffffffffffffffffffffffffffffffffffffffffffffffffffffffffffff82141561280557612804612810565b5b600182019050919050565b7f4e487b7100000000000000000000000000000000000000000000000000000000600052601160045260246000fd5b7f4e487b7100000000000000000000000000000000000000000000000000000000600052602260045260246000fd5b7f4e487b7100000000000000000000000000000000000000000000000000000000600052604160045260246000fd5b6000601f19601f8301169050919050565b6128b7816126f9565b81146128c257600080fd5b50565b6128ce8161271d565b81146128d957600080fd5b50565b6128e581612749565b81146128f057600080fd5b5056fea2646970667358221220ab9a72ca8a438a13abc2f961d9eda998357d1ee1781e6b04555b6f6907e54ae364736f6c63430008000033",
    "linkReferences": {},
    "deployedLinkReferences": {}
}