{
  "_format": "hh-sol-artifact-1",
  "contractName": "Address",
  "sourceName": "src/contracts/evm/Address.sol",
  "abi": [
    {
      "inputs": [],
      "stateMutability": "nonpayable",
      "type": "constructor"
    },
    {
      "anonymous": false,
      "inputs": [
        {
          "indexed": false,
          "internalType": "address",
          "name": "from",
          "type": "address"
        },
        {
          "indexed": false,
          "internalType": "uint256",
          "name": "value",
          "type": "uint256"
        },
        {
          "indexed": false,
          "internalType": "bytes",
          "name": "data",
          "type": "bytes"
        }
      ],
      "name": "Flush",
      "type": "event"
    },
    {
      "anonymous": false,
      "inputs": [
        {
          "indexed": false,
          "internalType": "address",
          "name": "",
          "type": "address"
        },
        {
          "indexed": false,
          "internalType": "uint256",
          "name": "",
          "type": "uint256"
        }
      ],
      "name": "Transfer",
      "type": "event"
    },
    {
      "anonymous": false,
      "inputs": [
        {
          "indexed": false,
          "internalType": "uint256",
          "name": "prevTransferGasLimit",
          "type": "uint256"
        },
        {
          "indexed": false,
          "internalType": "uint256",
          "name": "newTransferGasLimit",
          "type": "uint256"
        }
      ],
      "name": "TransferGasLimitChange",
      "type": "event"
    },
    {
      "stateMutability": "payable",
      "type": "fallback"
    },
    {
      "inputs": [],
      "name": "autoFlush",
      "outputs": [
        {
          "internalType": "bool",
          "name": "",
          "type": "bool"
        }
      ],
      "stateMutability": "view",
      "type": "function"
    },
    {
      "inputs": [
        {
          "internalType": "uint256",
          "name": "newTransferGasLimit",
          "type": "uint256"
        }
      ],
      "name": "changeTransferGasLimit",
      "outputs": [],
      "stateMutability": "nonpayable",
      "type": "function"
    },
    {
      "inputs": [],
      "name": "disableAutoFlush",
      "outputs": [
        {
          "internalType": "bool",
          "name": "",
          "type": "bool"
        }
      ],
      "stateMutability": "nonpayable",
      "type": "function"
    },
    {
      "inputs": [],
      "name": "enableAutoFlush",
      "outputs": [
        {
          "internalType": "bool",
          "name": "",
          "type": "bool"
        }
      ],
      "stateMutability": "nonpayable",
      "type": "function"
    },
    {
      "inputs": [],
      "name": "flush",
      "outputs": [],
      "stateMutability": "nonpayable",
      "type": "function"
    },
    {
      "inputs": [
        {
          "internalType": "address[]",
          "name": "tokenContractAddresses",
          "type": "address[]"
        }
      ],
      "name": "flushMultipleTokens",
      "outputs": [
        {
          "internalType": "bool",
          "name": "",
          "type": "bool"
        }
      ],
      "stateMutability": "nonpayable",
      "type": "function"
    },
    {
      "inputs": [
        {
          "internalType": "address",
          "name": "tokenContractAddress",
          "type": "address"
        }
      ],
      "name": "flushTokens",
      "outputs": [],
      "stateMutability": "nonpayable",
      "type": "function"
    },
    {
      "inputs": [
        {
          "internalType": "address",
          "name": "tokenContractAddress",
          "type": "address"
        }
      ],
      "name": "getBalance",
      "outputs": [
        {
          "internalType": "uint256",
          "name": "",
          "type": "uint256"
        }
      ],
      "stateMutability": "view",
      "type": "function"
    },
    {
      "inputs": [
        {
          "internalType": "address",
          "name": "owner_",
          "type": "address"
        },
        {
          "internalType": "string",
          "name": "name_",
          "type": "string"
        },
        {
          "internalType": "bool",
          "name": "enableAutoFlush_",
          "type": "bool"
        }
      ],
      "name": "init",
      "outputs": [],
      "stateMutability": "nonpayable",
      "type": "function"
    },
    {
      "inputs": [],
      "name": "name",
      "outputs": [
        {
          "internalType": "string",
          "name": "",
          "type": "string"
        }
      ],
      "stateMutability": "view",
      "type": "function"
    },
    {
      "inputs": [],
      "name": "owner",
      "outputs": [
        {
          "internalType": "address payable",
          "name": "",
          "type": "address"
        }
      ],
      "stateMutability": "view",
      "type": "function"
    },
    {
      "inputs": [
        {
          "internalType": "address",
          "name": "_to",
          "type": "address"
        },
        {
          "internalType": "uint256",
          "name": "_value",
          "type": "uint256"
        },
        {
          "internalType": "address",
          "name": "_tokenContractAddress",
          "type": "address"
        }
      ],
      "name": "transfer",
      "outputs": [
        {
          "internalType": "bool",
          "name": "",
          "type": "bool"
        }
      ],
      "stateMutability": "payable",
      "type": "function"
    },
    {
      "inputs": [],
      "name": "transferGasLimit",
      "outputs": [
        {
          "internalType": "uint256",
          "name": "",
          "type": "uint256"
        }
      ],
      "stateMutability": "view",
      "type": "function"
    },
    {
      "inputs": [
        {
          "internalType": "address",
          "name": "newOwner_",
          "type": "address"
        }
      ],
      "name": "transferOwnership",
      "outputs": [
        {
          "internalType": "bool",
          "name": "",
          "type": "bool"
        }
      ],
      "stateMutability": "nonpayable",
      "type": "function"
    },
    {
      "inputs": [
        {
          "internalType": "address[]",
          "name": "recipients_",
          "type": "address[]"
        },
        {
          "internalType": "uint256[]",
          "name": "amounts_",
          "type": "uint256[]"
        },
        {
          "internalType": "address",
          "name": "tokenAddress_",
          "type": "address"
        }
      ],
      "name": "transferToMany",
      "outputs": [
        {
          "internalType": "bool",
          "name": "",
          "type": "bool"
        }
      ],
      "stateMutability": "payable",
      "type": "function"
    },
    {
      "stateMutability": "payable",
      "type": "receive"
    }
  ],
  "bytecode": "0x60806040526000600260006101000a81548160ff0219169083151502179055503480156200002c57600080fd5b50614e206003819055507f414dec50d30853f0eea607f090bdfee072c2e0583dc66f04a723f7a0b8314eac60006003546040516200006c9291906200009c565b60405180910390a1620000e7565b6200008581620000d3565b82525050565b6200009681620000c9565b82525050565b6000604082019050620000b360008301856200007a565b620000c260208301846200008b565b9392505050565b6000819050919050565b6000620000e082620000c9565b9050919050565b61294b80620000f76000396000f3fe6080604052600436106100ec5760003560e01c80636b9f96ea1161008a578063dbba0f0111610059578063dbba0f0114610315578063e8f67c3b14610345578063f2fde38b14610370578063f8b2cb4f146103ad57610118565b80636b9f96ea146102785780637677d5821461028f5780638da5cb5b146102bf578063c5ae653a146102ea57610118565b80632cd9f12d116100c65780632cd9f12d146101be5780633ef13367146101e757806347aca69e14610210578063525852071461024d57610118565b806306fdde031461013f578063158c2cf71461016a578063240fc6841461019557610118565b366101185760011515600260009054906101000a900460ff1615151415610116576101156103ea565b5b005b60011515600260009054906101000a900460ff161515141561013d5761013c6103ea565b5b005b34801561014b57600080fd5b5061015461050e565b60405161016191906123cf565b60405180910390f35b34801561017657600080fd5b5061017f61059c565b60405161018c91906123b4565b60405180910390f35b3480156101a157600080fd5b506101bc60048036038101906101b79190611be9565b6105af565b005b3480156101ca57600080fd5b506101e560048036038101906101e09190611d92565b6107f4565b005b3480156101f357600080fd5b5061020e60048036038101906102099190611bc0565b61090c565b005b34801561021c57600080fd5b5061023760048036038101906102329190611d28565b610a74565b60405161024491906123b4565b60405180910390f35b34801561025957600080fd5b50610262610c25565b60405161026f91906123b4565b60405180910390f35b34801561028457600080fd5b5061028d6103ea565b005b6102a960048036038101906102a49190611c9f565b610cd8565b6040516102b691906123b4565b60405180910390f35b3480156102cb57600080fd5b506102d46110c8565b6040516102e19190612330565b60405180910390f35b3480156102f657600080fd5b506102ff6110ec565b60405161030c91906123b4565b60405180910390f35b61032f600480360381019061032a9190611c50565b61119f565b60405161033c91906123b4565b60405180910390f35b34801561035157600080fd5b5061035a611285565b60405161036791906125b1565b60405180910390f35b34801561037c57600080fd5b5061039760048036038101906103929190611bc0565b61128b565b6040516103a491906123b4565b60405180910390f35b3480156103b957600080fd5b506103d460048036038101906103cf9190611bc0565b611485565b6040516103e191906125b1565b60405180910390f35b600047905060008114156103fe575061050c565b60008060009054906101000a900473ffffffffffffffffffffffffffffffffffffffff1673ffffffffffffffffffffffffffffffffffffffff168260405161044590612300565b60006040518083038185875af1925050503d8060008114610482576040519150601f19603f3d011682016040523d82523d6000602084013e610487565b606091505b50509050806104cb576040517f08c379a00000000000000000000000000000000000000000000000000000000081526004016104c290612591565b60405180910390fd5b7f67495b83328eec178efdde077ac9a34136f3e1022fb5d419063f3d0e171196fa33836000366040516105019493929190612374565b60405180910390a150505b565b6001805461051b906127b7565b80601f0160208091040260200160405190810160405280929190818152602001828054610547906127b7565b80156105945780601f1061056957610100808354040283529160200191610594565b820191906000526020600020905b81548152906001019060200180831161057757829003601f168201915b505050505081565b600260009054906101000a900460ff1681565b600073ffffffffffffffffffffffffffffffffffffffff1660008054906101000a900473ffffffffffffffffffffffffffffffffffffffff1673ffffffffffffffffffffffffffffffffffffffff161461063e576040517f08c379a000000000000000000000000000000000000000000000000000000000815260040161063590612551565b60405180910390fd5b826000806101000a81548173ffffffffffffffffffffffffffffffffffffffff021916908373ffffffffffffffffffffffffffffffffffffffff1602179055508160019080519060200190610694929190611922565b5080600260006101000a81548160ff021916908315150217905550600047905060008114806106d6575060001515600260009054906101000a900460ff161515145b156106e157506107ef565b60008060009054906101000a900473ffffffffffffffffffffffffffffffffffffffff1673ffffffffffffffffffffffffffffffffffffffff168260405161072890612300565b60006040518083038185875af1925050503d8060008114610765576040519150601f19603f3d011682016040523d82523d6000602084013e61076a565b606091505b50509050806107ae576040517f08c379a00000000000000000000000000000000000000000000000000000000081526004016107a590612591565b60405180910390fd5b7f67495b83328eec178efdde077ac9a34136f3e1022fb5d419063f3d0e171196fa30836000366040516107e49493929190612374565b60405180910390a150505b505050565b60008054906101000a900473ffffffffffffffffffffffffffffffffffffffff1673ffffffffffffffffffffffffffffffffffffffff163373ffffffffffffffffffffffffffffffffffffffff1614610882576040517f08c379a000000000000000000000000000000000000000000000000000000000815260040161087990612411565b60405180910390fd5b6108fc8110156108c7576040517f08c379a00000000000000000000000000000000000000000000000000000000081526004016108be90612531565b60405180910390fd5b7f414dec50d30853f0eea607f090bdfee072c2e0583dc66f04a723f7a0b8314eac600354826040516108fa9291906125cc565b60405180910390a18060038190555050565b60008054906101000a900473ffffffffffffffffffffffffffffffffffffffff1673ffffffffffffffffffffffffffffffffffffffff163373ffffffffffffffffffffffffffffffffffffffff161461099a576040517f08c379a000000000000000000000000000000000000000000000000000000000815260040161099190612411565b60405180910390fd5b6000819050600030905060008273ffffffffffffffffffffffffffffffffffffffff166370a08231836040518263ffffffff1660e01b81526004016109df9190612315565b60206040518083038186803b1580156109f757600080fd5b505afa158015610a0b573d6000803e3d6000fd5b505050506040513d601f19601f82011682018060405250810190610a2f9190611dbb565b90506000811415610a4257505050610a71565b610a6d8460008054906101000a900473ffffffffffffffffffffffffffffffffffffffff1683611526565b5050505b50565b60008060009054906101000a900473ffffffffffffffffffffffffffffffffffffffff1673ffffffffffffffffffffffffffffffffffffffff163373ffffffffffffffffffffffffffffffffffffffff1614610b05576040517f08c379a0000000000000000000000000000000000000000000000000000000008152600401610afc90612411565b60405180910390fd5b6000805b8351811015610bdb573073ffffffffffffffffffffffffffffffffffffffff16633ef13367858381518110610b67577f4e487b7100000000000000000000000000000000000000000000000000000000600052603260045260246000fd5b60200260200101516040518263ffffffff1660e01b8152600401610b8b9190612315565b600060405180830381600087803b158015610ba557600080fd5b505af1925050508015610bb6575060015b610bc35760009150610bc8565b600191505b8080610bd3906127e9565b915050610b09565b5080610c1c576040517f08c379a0000000000000000000000000000000000000000000000000000000008152600401610c1390612451565b60405180910390fd5b80915050919050565b60008060009054906101000a900473ffffffffffffffffffffffffffffffffffffffff1673ffffffffffffffffffffffffffffffffffffffff163373ffffffffffffffffffffffffffffffffffffffff1614610cb6576040517f08c379a0000000000000000000000000000000000000000000000000000000008152600401610cad90612411565b60405180910390fd5b6001600260006101000a81548160ff0219169083151502179055506001905090565b60008060009054906101000a900473ffffffffffffffffffffffffffffffffffffffff1673ffffffffffffffffffffffffffffffffffffffff163373ffffffffffffffffffffffffffffffffffffffff1614610d69576040517f08c379a0000000000000000000000000000000000000000000000000000000008152600401610d6090612411565b60405180910390fd5b6000868690501415610db0576040517f08c379a0000000000000000000000000000000000000000000000000000000008152600401610da7906124d1565b60405180910390fd5b838390508686905014610df8576040517f08c379a0000000000000000000000000000000000000000000000000000000008152600401610def90612431565b60405180910390fd5b6101008686905010610e3f576040517f08c379a0000000000000000000000000000000000000000000000000000000008152600401610e3690612471565b60405180910390fd5b6000805b85859050811015610eae57858582818110610e87577f4e487b7100000000000000000000000000000000000000000000000000000000600052603260045260246000fd5b9050602002013582610e9991906126c5565b91508080610ea6906127e9565b915050610e43565b508034101580610ec6575080610ec38461165c565b10155b610f05576040517f08c379a0000000000000000000000000000000000000000000000000000000008152600401610efc90612511565b60405180910390fd5b60005b878790508110156110b957600073ffffffffffffffffffffffffffffffffffffffff16888883818110610f64577f4e487b7100000000000000000000000000000000000000000000000000000000600052603260045260246000fd5b9050602002016020810190610f799190611bc0565b73ffffffffffffffffffffffffffffffffffffffff161415610fd0576040517f08c379a0000000000000000000000000000000000000000000000000000000008152600401610fc7906124f1565b60405180910390fd5b61106788888381811061100c577f4e487b7100000000000000000000000000000000000000000000000000000000600052603260045260246000fd5b90506020020160208101906110219190611bc0565b87878481811061105a577f4e487b7100000000000000000000000000000000000000000000000000000000600052603260045260246000fd5b905060200201358661173d565b6110a6576040517f08c379a000000000000000000000000000000000000000000000000000000000815260040161109d906124b1565b60405180910390fd5b80806110b1906127e9565b915050610f08565b50600191505095945050505050565b60008054906101000a900473ffffffffffffffffffffffffffffffffffffffff1681565b60008060009054906101000a900473ffffffffffffffffffffffffffffffffffffffff1673ffffffffffffffffffffffffffffffffffffffff163373ffffffffffffffffffffffffffffffffffffffff161461117d576040517f08c379a000000000000000000000000000000000000000000000000000000000815260040161117490612411565b60405180910390fd5b6000600260006101000a81548160ff0219169083151502179055506001905090565b60008060009054906101000a900473ffffffffffffffffffffffffffffffffffffffff1673ffffffffffffffffffffffffffffffffffffffff163373ffffffffffffffffffffffffffffffffffffffff1614611230576040517f08c379a000000000000000000000000000000000000000000000000000000000815260040161122790612411565b60405180910390fd5b61123b84848461173d565b61127a576040517f08c379a0000000000000000000000000000000000000000000000000000000008152600401611271906124b1565b60405180910390fd5b600190509392505050565b60035481565b60008060009054906101000a900473ffffffffffffffffffffffffffffffffffffffff1673ffffffffffffffffffffffffffffffffffffffff163373ffffffffffffffffffffffffffffffffffffffff161461131c576040517f08c379a000000000000000000000000000000000000000000000000000000000815260040161131390612411565b60405180910390fd5b600073ffffffffffffffffffffffffffffffffffffffff1660008054906101000a900473ffffffffffffffffffffffffffffffffffffffff1673ffffffffffffffffffffffffffffffffffffffff1614156113ac576040517f08c379a00000000000000000000000000000000000000000000000000000000081526004016113a390612491565b60405180910390fd5b816000806101000a81548173ffffffffffffffffffffffffffffffffffffffff021916908373ffffffffffffffffffffffffffffffffffffffff160217905550600073ffffffffffffffffffffffffffffffffffffffff1660008054906101000a900473ffffffffffffffffffffffffffffffffffffffff1673ffffffffffffffffffffffffffffffffffffffff16141561147c576040517f08c379a000000000000000000000000000000000000000000000000000000000815260040161147390612491565b60405180910390fd5b60019050919050565b60008060009054906101000a900473ffffffffffffffffffffffffffffffffffffffff1673ffffffffffffffffffffffffffffffffffffffff163373ffffffffffffffffffffffffffffffffffffffff1614611516576040517f08c379a000000000000000000000000000000000000000000000000000000000815260040161150d90612411565b60405180910390fd5b61151f8261165c565b9050919050565b6000808473ffffffffffffffffffffffffffffffffffffffff1663a9059cbb858560405160240161155892919061234b565b6040516020818303038152906040529060e01b6020820180517bffffffffffffffffffffffffffffffffffffffffffffffffffffffff83818316178352505050506040516115a691906122e9565b6000604051808303816000865af19150503d80600081146115e3576040519150601f19603f3d011682016040523d82523d6000602084013e6115e8565b606091505b509150915081801561161657506000815114806116155750808060200190518101906116149190611d69565b5b5b611655576040517f08c379a000000000000000000000000000000000000000000000000000000000815260040161164c90612571565b60405180910390fd5b5050505050565b60003073ffffffffffffffffffffffffffffffffffffffff168273ffffffffffffffffffffffffffffffffffffffff16141561169a57479050611738565b6000829050600030905060008273ffffffffffffffffffffffffffffffffffffffff166370a08231836040518263ffffffff1660e01b81526004016116df9190612315565b60206040518083038186803b1580156116f757600080fd5b505afa15801561170b573d6000803e3d6000fd5b505050506040513d601f19601f8201168201806040525081019061172f9190611dbb565b90508093505050505b919050565b6000803073ffffffffffffffffffffffffffffffffffffffff168373ffffffffffffffffffffffffffffffffffffffff161461182d57600083905060008173ffffffffffffffffffffffffffffffffffffffff166370a08231306040518263ffffffff1660e01b81526004016117b39190612315565b60206040518083038186803b1580156117cb57600080fd5b505afa1580156117df573d6000803e3d6000fd5b505050506040513d601f19601f820116820180604052508101906118039190611dbb565b9050858110156118165760009250611826565b611821858888611526565b600192505b505061189e565b60008573ffffffffffffffffffffffffffffffffffffffff168560405161185390612300565b60006040518083038185875af1925050503d8060008114611890576040519150601f19603f3d011682016040523d82523d6000602084013e611895565b606091505b50509050809150505b806118de576040517f08c379a00000000000000000000000000000000000000000000000000000000081526004016118d5906123f1565b60405180910390fd5b7f69ca02dd4edd7bf0a4abb9ed3b7af3f14778db5d61921c7dc7cd545266326de2858560405161190f92919061234b565b60405180910390a1809150509392505050565b82805461192e906127b7565b90600052602060002090601f0160209004810192826119505760008555611997565b82601f1061196957805160ff1916838001178555611997565b82800160010185558215611997579182015b8281111561199657825182559160200191906001019061197b565b5b5090506119a491906119a8565b5090565b5b808211156119c15760008160009055506001016119a9565b5090565b60006119d86119d384612626565b6125f5565b905080838252602082019050828560208602820111156119f757600080fd5b60005b85811015611a275781611a0d8882611a6f565b8452602084019350602083019250506001810190506119fa565b5050509392505050565b6000611a44611a3f84612652565b6125f5565b905082815260208101848484011115611a5c57600080fd5b611a67848285612775565b509392505050565b600081359050611a7e816128d0565b92915050565b60008083601f840112611a9657600080fd5b8235905067ffffffffffffffff811115611aaf57600080fd5b602083019150836020820283011115611ac757600080fd5b9250929050565b600082601f830112611adf57600080fd5b8135611aef8482602086016119c5565b91505092915050565b60008083601f840112611b0a57600080fd5b8235905067ffffffffffffffff811115611b2357600080fd5b602083019150836020820283011115611b3b57600080fd5b9250929050565b600081359050611b51816128e7565b92915050565b600081519050611b66816128e7565b92915050565b600082601f830112611b7d57600080fd5b8135611b8d848260208601611a31565b91505092915050565b600081359050611ba5816128fe565b92915050565b600081519050611bba816128fe565b92915050565b600060208284031215611bd257600080fd5b6000611be084828501611a6f565b91505092915050565b600080600060608486031215611bfe57600080fd5b6000611c0c86828701611a6f565b935050602084013567ffffffffffffffff811115611c2957600080fd5b611c3586828701611b6c565b9250506040611c4686828701611b42565b9150509250925092565b600080600060608486031215611c6557600080fd5b6000611c7386828701611a6f565b9350506020611c8486828701611b96565b9250506040611c9586828701611a6f565b9150509250925092565b600080600080600060608688031215611cb757600080fd5b600086013567ffffffffffffffff811115611cd157600080fd5b611cdd88828901611a84565b9550955050602086013567ffffffffffffffff811115611cfc57600080fd5b611d0888828901611af8565b93509350506040611d1b88828901611a6f565b9150509295509295909350565b600060208284031215611d3a57600080fd5b600082013567ffffffffffffffff811115611d5457600080fd5b611d6084828501611ace565b91505092915050565b600060208284031215611d7b57600080fd5b6000611d8984828501611b57565b91505092915050565b600060208284031215611da457600080fd5b6000611db284828501611b96565b91505092915050565b600060208284031215611dcd57600080fd5b6000611ddb84828501611bab565b91505092915050565b611ded8161272d565b82525050565b611dfc8161271b565b82525050565b611e0b8161273f565b82525050565b6000611e1d8385612698565b9350611e2a838584612775565b611e33836128bf565b840190509392505050565b6000611e4982612682565b611e5381856126a9565b9350611e63818560208601612784565b80840191505092915050565b6000611e7a8261268d565b611e8481856126b4565b9350611e94818560208601612784565b611e9d816128bf565b840191505092915050565b6000611eb56019836126b4565b91507f4661696c656420746f207472616e7366657220616d6f756e74000000000000006000830152602082019050919050565b6000611ef56016836126b4565b91507f556e617574686f72697a6564206f7065726174696f6e000000000000000000006000830152602082019050919050565b6000611f35603e836126b4565b91507f496e76616c696420696e7075743a206c656e677468206f66207265636970696560008301527f6e7473206e6f7420657175616c206c656e677468206f6620616d6f756e7400006020830152604082019050919050565b6000611f9b6021836126b4565b91507f536f6d657468696e672077656e742077726f6e6720647572696e6720666c757360008301527f68000000000000000000000000000000000000000000000000000000000000006020830152604082019050919050565b60006120016013836126b4565b91507f546f6f206d616e7920726563697069656e7473000000000000000000000000006000830152602082019050919050565b60006120416011836126b4565b91507f4f776e65722069732072657175697265640000000000000000000000000000006000830152602082019050919050565b60006120816012836126b4565b91507f4661696c656420746f207472616e7366657200000000000000000000000000006000830152602082019050919050565b60006120c16020836126b4565b91507f4d7573742073656e6420746f206174206c65617374206f6e6520706572736f6e6000830152602082019050919050565b60006121016019836126b4565b91507f496e76616c696420726563697069656e742061646472657373000000000000006000830152602082019050919050565b6000612141602d836126b4565b91507f4e6f7420656e6f7567682076616c75652073656e7420746f20636f6d706c657460008301527f65207472616e73616374696f6e000000000000000000000000000000000000006020830152604082019050919050565b60006121a76000836126a9565b9150600082019050919050565b60006121c1601a836126b4565b91507f5472616e7366657220676173206c696d697420746f6f206c6f770000000000006000830152602082019050919050565b60006122016013836126b4565b91507f416c726561647920696e697469616c697a6564000000000000000000000000006000830152602082019050919050565b6000612241602d836126b4565b91507f5472616e7366657248656c7065723a3a736166655472616e736665723a20747260008301527f616e73666572206661696c6564000000000000000000000000000000000000006020830152604082019050919050565b60006122a7600c836126b4565b91507f466c757368206661696c656400000000000000000000000000000000000000006000830152602082019050919050565b6122e38161276b565b82525050565b60006122f58284611e3e565b915081905092915050565b600061230b8261219a565b9150819050919050565b600060208201905061232a6000830184611df3565b92915050565b60006020820190506123456000830184611de4565b92915050565b60006040820190506123606000830185611df3565b61236d60208301846122da565b9392505050565b60006060820190506123896000830187611df3565b61239660208301866122da565b81810360408301526123a9818486611e11565b905095945050505050565b60006020820190506123c96000830184611e02565b92915050565b600060208201905081810360008301526123e98184611e6f565b905092915050565b6000602082019050818103600083015261240a81611ea8565b9050919050565b6000602082019050818103600083015261242a81611ee8565b9050919050565b6000602082019050818103600083015261244a81611f28565b9050919050565b6000602082019050818103600083015261246a81611f8e565b9050919050565b6000602082019050818103600083015261248a81611ff4565b9050919050565b600060208201905081810360008301526124aa81612034565b9050919050565b600060208201905081810360008301526124ca81612074565b9050919050565b600060208201905081810360008301526124ea816120b4565b9050919050565b6000602082019050818103600083015261250a816120f4565b9050919050565b6000602082019050818103600083015261252a81612134565b9050919050565b6000602082019050818103600083015261254a816121b4565b9050919050565b6000602082019050818103600083015261256a816121f4565b9050919050565b6000602082019050818103600083015261258a81612234565b9050919050565b600060208201905081810360008301526125aa8161229a565b9050919050565b60006020820190506125c660008301846122da565b92915050565b60006040820190506125e160008301856122da565b6125ee60208301846122da565b9392505050565b6000604051905081810181811067ffffffffffffffff8211171561261c5761261b612890565b5b8060405250919050565b600067ffffffffffffffff82111561264157612640612890565b5b602082029050602081019050919050565b600067ffffffffffffffff82111561266d5761266c612890565b5b601f19601f8301169050602081019050919050565b600081519050919050565b600081519050919050565b600082825260208201905092915050565b600081905092915050565b600082825260208201905092915050565b60006126d08261276b565b91506126db8361276b565b9250827fffffffffffffffffffffffffffffffffffffffffffffffffffffffffffffffff038211156127105761270f612832565b5b828201905092915050565b60006127268261274b565b9050919050565b60006127388261274b565b9050919050565b60008115159050919050565b600073ffffffffffffffffffffffffffffffffffffffff82169050919050565b6000819050919050565b82818337600083830152505050565b60005b838110156127a2578082015181840152602081019050612787565b838111156127b1576000848401525b50505050565b600060028204905060018216806127cf57607f821691505b602082108114156127e3576127e2612861565b5b50919050565b60006127f48261276b565b91507fffffffffffffffffffffffffffffffffffffffffffffffffffffffffffffffff82141561282757612826612832565b5b600182019050919050565b7f4e487b7100000000000000000000000000000000000000000000000000000000600052601160045260246000fd5b7f4e487b7100000000000000000000000000000000000000000000000000000000600052602260045260246000fd5b7f4e487b7100000000000000000000000000000000000000000000000000000000600052604160045260246000fd5b6000601f19601f8301169050919050565b6128d98161271b565b81146128e457600080fd5b50565b6128f08161273f565b81146128fb57600080fd5b50565b6129078161276b565b811461291257600080fd5b5056fea26469706673582212203e6bcf88aae67319a0f186a5a34fbe1cbb84c12b38de7db1e8120231300fd21664736f6c63430008000033",
  "linkReferences": {},
  "deployedLinkReferences": {}
}