{
  "_format": "hh-sol-artifact-1",
  "contractName": "AddressFactory",
  "sourceName": "src/contracts/tvm/AddressFactory.sol",
  "abi": [
    {
      "anonymous": false,
      "inputs": [
        {
          "indexed": false,
          "internalType": "string",
          "name": "name",
          "type": "string"
        },
        {
          "indexed": true,
          "internalType": "address",
          "name": "clone",
          "type": "address"
        },
        {
          "indexed": true,
          "internalType": "address",
          "name": "owner",
          "type": "address"
        }
      ],
      "name": "Cloned",
      "type": "event"
    },
    {
      "inputs": [
        {
          "internalType": "address",
          "name": "implementation",
          "type": "address"
        },
        {
          "internalType": "string",
          "name": "name",
          "type": "string"
        },
        {
          "internalType": "bool",
          "name": "enableAutoFlush",
          "type": "bool"
        }
      ],
      "name": "deployAddress",
      "outputs": [
        {
          "internalType": "address",
          "name": "instance",
          "type": "address"
        }
      ],
      "stateMutability": "nonpayable",
      "type": "function"
    },
    {
      "inputs": [
        {
          "internalType": "address",
          "name": "implementation",
          "type": "address"
        },
        {
          "internalType": "string",
          "name": "name",
          "type": "string"
        }
      ],
      "name": "predictAddress",
      "outputs": [
        {
          "internalType": "address",
          "name": "",
          "type": "address"
        }
      ],
      "stateMutability": "view",
      "type": "function"
    },
    {
      "inputs": [
        {
          "internalType": "string",
          "name": "source",
          "type": "string"
        },
        {
          "internalType": "address",
          "name": "sender",
          "type": "address"
        }
      ],
      "name": "stringToBytes32",
      "outputs": [
        {
          "internalType": "bytes32",
          "name": "result",
          "type": "bytes32"
        }
      ],
      "stateMutability": "pure",
      "type": "function"
    }
  ],
  "bytecode": "0x608060405234801561001057600080fd5b50610baf806100206000396000f3fe608060405234801561001057600080fd5b50600436106100415760003560e01c80634564cc7014610046578063cb16c11e14610076578063cf0012c1146100a6575b600080fd5b610060600480360381019061005b919061077f565b6100d6565b60405161006d9190610942565b60405180910390f35b610090600480360381019061008b9190610683565b610129565b60405161009d91906108e9565b60405180910390f35b6100c060048036038101906100bb91906106d7565b610152565b6040516100cd91906108e9565b60405180910390f35b600080839050600083856040516020016100f19291906108c1565b6040516020818303038152906040529050600082511415610119576000801b92505050610123565b6040810151925050505b92915050565b60008061013683336100d6565b905060006101458583306104cb565b9050809250505092915050565b60008061015f84336100d6565b90506040517f3d602d80600a3d3981f3363d3d373d3d3d363d7300000000000000000000000081528560601b60148201527f5af43d82803e903d91602b57fd5bf300000000000000000000000000000000006028820152816037826000f592505060008290508073ffffffffffffffffffffffffffffffffffffffff1663240fc6843387876040518463ffffffff1660e01b815260040161020293929190610904565b600060405180830381600087803b15801561021c57600080fd5b505af1158015610230573d6000803e3d6000fd5b50505050806000803373ffffffffffffffffffffffffffffffffffffffff1673ffffffffffffffffffffffffffffffffffffffff16815260200190815260200160002060008373ffffffffffffffffffffffffffffffffffffffff1673ffffffffffffffffffffffffffffffffffffffff16815260200190815260200160002060006101000a81548173ffffffffffffffffffffffffffffffffffffffff021916908373ffffffffffffffffffffffffffffffffffffffff1602179055508073ffffffffffffffffffffffffffffffffffffffff16638da5cb5b6040518163ffffffff1660e01b815260040160206040518083038186803b15801561033457600080fd5b505afa158015610348573d6000803e3d6000fd5b505050506040513d601f19601f8201168201806040525081019061036c919061065a565b73ffffffffffffffffffffffffffffffffffffffff168373ffffffffffffffffffffffffffffffffffffffff167f38ec3359a04798ef2bfe8e3dde0e5387f4ad17a84f1c90aee4ea4cbffb2924348373ffffffffffffffffffffffffffffffffffffffff166306fdde036040518163ffffffff1660e01b815260040160006040518083038186803b15801561040057600080fd5b505afa158015610414573d6000803e3d6000fd5b505050506040513d6000823e3d601f19601f8201168201806040525081019061043d919061073e565b60405161044a919061095d565b60405180910390a3600073ffffffffffffffffffffffffffffffffffffffff168373ffffffffffffffffffffffffffffffffffffffff1614156104c2576040517f08c379a00000000000000000000000000000000000000000000000000000000081526004016104b99061097f565b60405180910390fd5b50509392505050565b60006040517f3d602d80600a3d3981f3363d3d373d3d3d363d7300000000000000000000000081528460601b60148201527f5af43d82803e903d91602b57fd5bf3410000000000000000000000000000000060288201528260601b603882015283604c82015260378120606c820152605560378201209150509392505050565b600061055e610559846109d0565b61099f565b90508281526020810184848401111561057657600080fd5b610581848285610a81565b509392505050565b600061059c610597846109d0565b61099f565b9050828152602081018484840111156105b457600080fd5b6105bf848285610a90565b509392505050565b6000813590506105d681610b34565b92915050565b6000815190506105eb81610b4b565b92915050565b60008135905061060081610b62565b92915050565b600082601f83011261061757600080fd5b813561062784826020860161054b565b91505092915050565b600082601f83011261064157600080fd5b8151610651848260208601610589565b91505092915050565b60006020828403121561066c57600080fd5b600061067a848285016105dc565b91505092915050565b6000806040838503121561069657600080fd5b60006106a4858286016105c7565b925050602083013567ffffffffffffffff8111156106c157600080fd5b6106cd85828601610606565b9150509250929050565b6000806000606084860312156106ec57600080fd5b60006106fa868287016105c7565b935050602084013567ffffffffffffffff81111561071757600080fd5b61072386828701610606565b9250506040610734868287016105f1565b9150509250925092565b60006020828403121561075057600080fd5b600082015167ffffffffffffffff81111561076a57600080fd5b61077684828501610630565b91505092915050565b6000806040838503121561079257600080fd5b600083013567ffffffffffffffff8111156107ac57600080fd5b6107b885828601610606565b92505060206107c9858286016105c7565b9150509250929050565b6107dc81610a27565b82525050565b6107f36107ee82610a27565b610ac3565b82525050565b61080281610a4b565b82525050565b61081181610a57565b82525050565b600061082282610a00565b61082c8185610a0b565b935061083c818560208601610a90565b61084581610b16565b840191505092915050565b600061085b82610a00565b6108658185610a1c565b9350610875818560208601610a90565b80840191505092915050565b600061088e601783610a0b565b91507f455243313136373a2063726561746532206661696c65640000000000000000006000830152602082019050919050565b60006108cd82856107e2565b6014820191506108dd8284610850565b91508190509392505050565b60006020820190506108fe60008301846107d3565b92915050565b600060608201905061091960008301866107d3565b818103602083015261092b8185610817565b905061093a60408301846107f9565b949350505050565b60006020820190506109576000830184610808565b92915050565b600060208201905081810360008301526109778184610817565b905092915050565b6000602082019050818103600083015261099881610881565b9050919050565b6000604051905081810181811067ffffffffffffffff821117156109c6576109c5610ae7565b5b8060405250919050565b600067ffffffffffffffff8211156109eb576109ea610ae7565b5b601f19601f8301169050602081019050919050565b600081519050919050565b600082825260208201905092915050565b600081905092915050565b6000610a3282610a61565b9050919050565b6000610a4482610a61565b9050919050565b60008115159050919050565b6000819050919050565b600073ffffffffffffffffffffffffffffffffffffffff82169050919050565b82818337600083830152505050565b60005b83811015610aae578082015181840152602081019050610a93565b83811115610abd576000848401525b50505050565b6000610ace82610ad5565b9050919050565b6000610ae082610b27565b9050919050565b7f4e487b7100000000000000000000000000000000000000000000000000000000600052604160045260246000fd5b6000601f19601f8301169050919050565b60008160601b9050919050565b610b3d81610a27565b8114610b4857600080fd5b50565b610b5481610a39565b8114610b5f57600080fd5b50565b610b6b81610a4b565b8114610b7657600080fd5b5056fea2646970667358221220832ef48029ae3085d90f777c107e189c6e8832cf82fd3501d1c8d054783df07164736f6c63430008000033",
  "linkReferences": {},
  "deployedLinkReferences": {}
}